:040000000E94020058
:1000040011241FBEC0E0D8E0DEBFCDBF0E941100A6
:100014000E941D000E9426000E943700FFCF11E0BD
:10002400A0E0B1E0E8EFF0E002C005900D92A0304E
:10003400B107D9F7089511E0A4E0B1E001C01D9221
:10004400A430B107E1F7089510E0C6E6D0E004C09B
:100054002297FE010E943300C436D107C9F70895E0
:1000640061000590F491E02D0994CF93DF9300D0C3
:10007400CDB7DEB7A0910001B0E020910101E0917D
:100084000201F0E0909103018081892780838C91A3
:1000940082278C931A828A818F3FB1F319828981D6
:1000A4008F3F31F089818F5F898389818F3FD1F7B9
:1000B4008A818F5F8A838A818F3F81F7E5CFE2E06F
:1000C400F1E088E3808380E18183C498E081E1509A
:1000D400F0E0808180618083E0E0F1E082E380836E
:1000E40080E881839798E081E150F0E08081806826
:0400F4008083089568
:040000030000006495
:00000001FF
